{
	".learneth/Solidity Beginner Course/10.3 Transactions - Sending Ether/sendingEther.sol": {
		"Charity": {
			"abi": [
				{
					"inputs": [],
					"stateMutability": "nonpayable",
					"type": "constructor"
				},
				{
					"inputs": [],
					"name": "donate",
					"outputs": [],
					"stateMutability": "payable",
					"type": "function"
				},
				{
					"inputs": [],
					"name": "owner",
					"outputs": [
						{
							"internalType": "address",
							"name": "",
							"type": "address"
						}
					],
					"stateMutability": "view",
					"type": "function"
				},
				{
					"inputs": [],
					"name": "withdraw",
					"outputs": [],
					"stateMutability": "nonpayable",
					"type": "function"
				}
			],
			"devdoc": {
				"kind": "dev",
				"methods": {},
				"version": 1
			},
			"evm": {
				"assembly": "    /* \".learneth/Solidity Beginner Course/10.3 Transactions - Sending Ether/sendingEther.sol\":1503:1854  contract Charity{... */\n  mstore(0x40, 0x80)\n    /* \".learneth/Solidity Beginner Course/10.3 Transactions - Sending Ether/sendingEther.sol\":1552:1601  constructor (){... */\n  callvalue\n  dup1\n  iszero\n  tag_1\n  jumpi\n  0x00\n  dup1\n  revert\ntag_1:\n  pop\n    /* \".learneth/Solidity Beginner Course/10.3 Transactions - Sending Ether/sendingEther.sol\":1584:1594  msg.sender */\n  caller\n    /* \".learneth/Solidity Beginner Course/10.3 Transactions - Sending Ether/sendingEther.sol\":1576:1581  owner */\n  0x00\n  dup1\n    /* \".learneth/Solidity Beginner Course/10.3 Transactions - Sending Ether/sendingEther.sol\":1576:1594  owner = msg.sender */\n  0x0100\n  exp\n  dup2\n  sload\n  dup2\n  0xffffffffffffffffffffffffffffffffffffffff\n  mul\n  not\n  and\n  swap1\n  dup4\n  0xffffffffffffffffffffffffffffffffffffffff\n  and\n  mul\n  or\n  swap1\n  sstore\n  pop\n    /* \".learneth/Solidity Beginner Course/10.3 Transactions - Sending Ether/sendingEther.sol\":1503:1854  contract Charity{... */\n  dataSize(sub_0)\n  dup1\n  dataOffset(sub_0)\n  0x00\n  codecopy\n  0x00\n  return\nstop\n\nsub_0: assembly {\n        /* \".learneth/Solidity Beginner Course/10.3 Transactions - Sending Ether/sendingEther.sol\":1503:1854  contract Charity{... */\n      mstore(0x40, 0x80)\n      jumpi(tag_1, lt(calldatasize, 0x04))\n      shr(0xe0, calldataload(0x00))\n      dup1\n      0x3ccfd60b\n      eq\n      tag_2\n      jumpi\n      dup1\n      0x8da5cb5b\n      eq\n      tag_3\n      jumpi\n      dup1\n      0xed88c68e\n      eq\n      tag_4\n      jumpi\n    tag_1:\n      0x00\n      dup1\n      revert\n        /* \".learneth/Solidity Beginner Course/10.3 Transactions - Sending Ether/sendingEther.sol\":1653:1852  function withdraw() public {... */\n    tag_2:\n      callvalue\n      dup1\n      iszero\n      tag_5\n      jumpi\n      0x00\n      dup1\n      revert\n    tag_5:\n      pop\n      tag_6\n      tag_7\n      jump\t// in\n    tag_6:\n      stop\n        /* \".learneth/Solidity Beginner Course/10.3 Transactions - Sending Ether/sendingEther.sol\":1525:1545  address public owner */\n    tag_3:\n      callvalue\n      dup1\n      iszero\n      tag_8\n      jumpi\n      0x00\n      dup1\n      revert\n    tag_8:\n      pop\n      tag_9\n      tag_10\n      jump\t// in\n    tag_9:\n      mload(0x40)\n      tag_11\n      swap2\n      swap1\n      tag_12\n      jump\t// in\n    tag_11:\n      mload(0x40)\n      dup1\n      swap2\n      sub\n      swap1\n      return\n        /* \".learneth/Solidity Beginner Course/10.3 Transactions - Sending Ether/sendingEther.sol\":1607:1647  function donate() public payable {... */\n    tag_4:\n      tag_13\n      tag_14\n      jump\t// in\n    tag_13:\n      stop\n        /* \".learneth/Solidity Beginner Course/10.3 Transactions - Sending Ether/sendingEther.sol\":1653:1852  function withdraw() public {... */\n    tag_7:\n        /* \".learneth/Solidity Beginner Course/10.3 Transactions - Sending Ether/sendingEther.sol\":1690:1701  uint amount */\n      0x00\n        /* \".learneth/Solidity Beginner Course/10.3 Transactions - Sending Ether/sendingEther.sol\":1704:1725  address(this).balance */\n      selfbalance\n        /* \".learneth/Solidity Beginner Course/10.3 Transactions - Sending Ether/sendingEther.sol\":1690:1725  uint amount = address(this).balance */\n      swap1\n      pop\n        /* \".learneth/Solidity Beginner Course/10.3 Transactions - Sending Ether/sendingEther.sol\":1737:1746  bool sent */\n      0x00\n        /* \".learneth/Solidity Beginner Course/10.3 Transactions - Sending Ether/sendingEther.sol\":1748:1765  bytes memory data */\n      dup1\n        /* \".learneth/Solidity Beginner Course/10.3 Transactions - Sending Ether/sendingEther.sol\":1769:1774  owner */\n      0x00\n      dup1\n      sload\n      swap1\n      0x0100\n      exp\n      swap1\n      div\n      0xffffffffffffffffffffffffffffffffffffffff\n      and\n        /* \".learneth/Solidity Beginner Course/10.3 Transactions - Sending Ether/sendingEther.sol\":1769:1779  owner.call */\n      0xffffffffffffffffffffffffffffffffffffffff\n      and\n        /* \".learneth/Solidity Beginner Course/10.3 Transactions - Sending Ether/sendingEther.sol\":1787:1793  amount */\n      dup4\n        /* \".learneth/Solidity Beginner Course/10.3 Transactions - Sending Ether/sendingEther.sol\":1769:1798  owner.call{value: amount}(\"\") */\n      mload(0x40)\n      tag_16\n      swap1\n      tag_17\n      jump\t// in\n    tag_16:\n      0x00\n      mload(0x40)\n      dup1\n      dup4\n      sub\n      dup2\n      dup6\n      dup8\n      gas\n      call\n      swap3\n      pop\n      pop\n      pop\n      returndatasize\n      dup1\n      0x00\n      dup2\n      eq\n      tag_20\n      jumpi\n      mload(0x40)\n      swap2\n      pop\n      and(add(returndatasize, 0x3f), not(0x1f))\n      dup3\n      add\n      0x40\n      mstore\n      returndatasize\n      dup3\n      mstore\n      returndatasize\n      0x00\n      0x20\n      dup5\n      add\n      returndatacopy\n      jump(tag_19)\n    tag_20:\n      0x60\n      swap2\n      pop\n    tag_19:\n      pop\n        /* \".learneth/Solidity Beginner Course/10.3 Transactions - Sending Ether/sendingEther.sol\":1736:1798  (bool sent, bytes memory data) = owner.call{value: amount}(\"\") */\n      swap2\n      pop\n      swap2\n      pop\n        /* \".learneth/Solidity Beginner Course/10.3 Transactions - Sending Ether/sendingEther.sol\":1816:1820  sent */\n      dup2\n        /* \".learneth/Solidity Beginner Course/10.3 Transactions - Sending Ether/sendingEther.sol\":1808:1845  require(sent, \"Failed to send Ether\") */\n      tag_21\n      jumpi\n      mload(0x40)\n      0x08c379a000000000000000000000000000000000000000000000000000000000\n      dup2\n      mstore\n      0x04\n      add\n      tag_22\n      swap1\n      tag_23\n      jump\t// in\n    tag_22:\n      mload(0x40)\n      dup1\n      swap2\n      sub\n      swap1\n      revert\n    tag_21:\n        /* \".learneth/Solidity Beginner Course/10.3 Transactions - Sending Ether/sendingEther.sol\":1680:1852  {... */\n      pop\n      pop\n      pop\n        /* \".learneth/Solidity Beginner Course/10.3 Transactions - Sending Ether/sendingEther.sol\":1653:1852  function withdraw() public {... */\n      jump\t// out\n        /* \".learneth/Solidity Beginner Course/10.3 Transactions - Sending Ether/sendingEther.sol\":1525:1545  address public owner */\n    tag_10:\n      0x00\n      dup1\n      sload\n      swap1\n      0x0100\n      exp\n      swap1\n      div\n      0xffffffffffffffffffffffffffffffffffffffff\n      and\n      dup2\n      jump\t// out\n        /* \".learneth/Solidity Beginner Course/10.3 Transactions - Sending Ether/sendingEther.sol\":1607:1647  function donate() public payable {... */\n    tag_14:\n      jump\t// out\n        /* \"#utility.yul\":7:133   */\n    tag_25:\n        /* \"#utility.yul\":44:51   */\n      0x00\n        /* \"#utility.yul\":84:126   */\n      0xffffffffffffffffffffffffffffffffffffffff\n        /* \"#utility.yul\":77:82   */\n      dup3\n        /* \"#utility.yul\":73:127   */\n      and\n        /* \"#utility.yul\":62:127   */\n      swap1\n      pop\n        /* \"#utility.yul\":7:133   */\n      swap2\n      swap1\n      pop\n      jump\t// out\n        /* \"#utility.yul\":139:235   */\n    tag_26:\n        /* \"#utility.yul\":176:183   */\n      0x00\n        /* \"#utility.yul\":205:229   */\n      tag_37\n        /* \"#utility.yul\":223:228   */\n      dup3\n        /* \"#utility.yul\":205:229   */\n      tag_25\n      jump\t// in\n    tag_37:\n        /* \"#utility.yul\":194:229   */\n      swap1\n      pop\n        /* \"#utility.yul\":139:235   */\n      swap2\n      swap1\n      pop\n      jump\t// out\n        /* \"#utility.yul\":241:359   */\n    tag_27:\n        /* \"#utility.yul\":328:352   */\n      tag_39\n        /* \"#utility.yul\":346:351   */\n      dup2\n        /* \"#utility.yul\":328:352   */\n      tag_26\n      jump\t// in\n    tag_39:\n        /* \"#utility.yul\":323:326   */\n      dup3\n        /* \"#utility.yul\":316:353   */\n      mstore\n        /* \"#utility.yul\":241:359   */\n      pop\n      pop\n      jump\t// out\n        /* \"#utility.yul\":365:587   */\n    tag_12:\n        /* \"#utility.yul\":458:462   */\n      0x00\n        /* \"#utility.yul\":496:498   */\n      0x20\n        /* \"#utility.yul\":485:494   */\n      dup3\n        /* \"#utility.yul\":481:499   */\n      add\n        /* \"#utility.yul\":473:499   */\n      swap1\n      pop\n        /* \"#utility.yul\":509:580   */\n      tag_41\n        /* \"#utility.yul\":577:578   */\n      0x00\n        /* \"#utility.yul\":566:575   */\n      dup4\n        /* \"#utility.yul\":562:579   */\n      add\n        /* \"#utility.yul\":553:559   */\n      dup5\n        /* \"#utility.yul\":509:580   */\n      tag_27\n      jump\t// in\n    tag_41:\n        /* \"#utility.yul\":365:587   */\n      swap3\n      swap2\n      pop\n      pop\n      jump\t// out\n        /* \"#utility.yul\":593:740   */\n    tag_28:\n        /* \"#utility.yul\":694:705   */\n      0x00\n        /* \"#utility.yul\":731:734   */\n      dup2\n        /* \"#utility.yul\":716:734   */\n      swap1\n      pop\n        /* \"#utility.yul\":593:740   */\n      swap3\n      swap2\n      pop\n      pop\n      jump\t// out\n        /* \"#utility.yul\":746:860   */\n    tag_29:\n      pop\n      jump\t// out\n        /* \"#utility.yul\":866:1264   */\n    tag_30:\n        /* \"#utility.yul\":1025:1028   */\n      0x00\n        /* \"#utility.yul\":1046:1129   */\n      tag_45\n        /* \"#utility.yul\":1127:1128   */\n      0x00\n        /* \"#utility.yul\":1122:1125   */\n      dup4\n        /* \"#utility.yul\":1046:1129   */\n      tag_28\n      jump\t// in\n    tag_45:\n        /* \"#utility.yul\":1039:1129   */\n      swap2\n      pop\n        /* \"#utility.yul\":1138:1231   */\n      tag_46\n        /* \"#utility.yul\":1227:1230   */\n      dup3\n        /* \"#utility.yul\":1138:1231   */\n      tag_29\n      jump\t// in\n    tag_46:\n        /* \"#utility.yul\":1256:1257   */\n      0x00\n        /* \"#utility.yul\":1251:1254   */\n      dup3\n        /* \"#utility.yul\":1247:1258   */\n      add\n        /* \"#utility.yul\":1240:1258   */\n      swap1\n      pop\n        /* \"#utility.yul\":866:1264   */\n      swap2\n      swap1\n      pop\n      jump\t// out\n        /* \"#utility.yul\":1270:1649   */\n    tag_17:\n        /* \"#utility.yul\":1454:1457   */\n      0x00\n        /* \"#utility.yul\":1476:1623   */\n      tag_48\n        /* \"#utility.yul\":1619:1622   */\n      dup3\n        /* \"#utility.yul\":1476:1623   */\n      tag_30\n      jump\t// in\n    tag_48:\n        /* \"#utility.yul\":1469:1623   */\n      swap2\n      pop\n        /* \"#utility.yul\":1640:1643   */\n      dup2\n        /* \"#utility.yul\":1633:1643   */\n      swap1\n      pop\n        /* \"#utility.yul\":1270:1649   */\n      swap2\n      swap1\n      pop\n      jump\t// out\n        /* \"#utility.yul\":1655:1824   */\n    tag_31:\n        /* \"#utility.yul\":1739:1750   */\n      0x00\n        /* \"#utility.yul\":1773:1779   */\n      dup3\n        /* \"#utility.yul\":1768:1771   */\n      dup3\n        /* \"#utility.yul\":1761:1780   */\n      mstore\n        /* \"#utility.yul\":1813:1817   */\n      0x20\n        /* \"#utility.yul\":1808:1811   */\n      dup3\n        /* \"#utility.yul\":1804:1818   */\n      add\n        /* \"#utility.yul\":1789:1818   */\n      swap1\n      pop\n        /* \"#utility.yul\":1655:1824   */\n      swap3\n      swap2\n      pop\n      pop\n      jump\t// out\n        /* \"#utility.yul\":1830:2000   */\n    tag_32:\n        /* \"#utility.yul\":1970:1992   */\n      0x4661696c656420746f2073656e64204574686572000000000000000000000000\n        /* \"#utility.yul\":1966:1967   */\n      0x00\n        /* \"#utility.yul\":1958:1964   */\n      dup3\n        /* \"#utility.yul\":1954:1968   */\n      add\n        /* \"#utility.yul\":1947:1993   */\n      mstore\n        /* \"#utility.yul\":1830:2000   */\n      pop\n      jump\t// out\n        /* \"#utility.yul\":2006:2372   */\n    tag_33:\n        /* \"#utility.yul\":2148:2151   */\n      0x00\n        /* \"#utility.yul\":2169:2236   */\n      tag_52\n        /* \"#utility.yul\":2233:2235   */\n      0x14\n        /* \"#utility.yul\":2228:2231   */\n      dup4\n        /* \"#utility.yul\":2169:2236   */\n      tag_31\n      jump\t// in\n    tag_52:\n        /* \"#utility.yul\":2162:2236   */\n      swap2\n      pop\n        /* \"#utility.yul\":2245:2338   */\n      tag_53\n        /* \"#utility.yul\":2334:2337   */\n      dup3\n        /* \"#utility.yul\":2245:2338   */\n      tag_32\n      jump\t// in\n    tag_53:\n        /* \"#utility.yul\":2363:2365   */\n      0x20\n        /* \"#utility.yul\":2358:2361   */\n      dup3\n        /* \"#utility.yul\":2354:2366   */\n      add\n        /* \"#utility.yul\":2347:2366   */\n      swap1\n      pop\n        /* \"#utility.yul\":2006:2372   */\n      swap2\n      swap1\n      pop\n      jump\t// out\n        /* \"#utility.yul\":2378:2797   */\n    tag_23:\n        /* \"#utility.yul\":2544:2548   */\n      0x00\n        /* \"#utility.yul\":2582:2584   */\n      0x20\n        /* \"#utility.yul\":2571:2580   */\n      dup3\n        /* \"#utility.yul\":2567:2585   */\n      add\n        /* \"#utility.yul\":2559:2585   */\n      swap1\n      pop\n        /* \"#utility.yul\":2631:2640   */\n      dup2\n        /* \"#utility.yul\":2625:2629   */\n      dup2\n        /* \"#utility.yul\":2621:2641   */\n      sub\n        /* \"#utility.yul\":2617:2618   */\n      0x00\n        /* \"#utility.yul\":2606:2615   */\n      dup4\n        /* \"#utility.yul\":2602:2619   */\n      add\n        /* \"#utility.yul\":2595:2642   */\n      mstore\n        /* \"#utility.yul\":2659:2790   */\n      tag_55\n        /* \"#utility.yul\":2785:2789   */\n      dup2\n        /* \"#utility.yul\":2659:2790   */\n      tag_33\n      jump\t// in\n    tag_55:\n        /* \"#utility.yul\":2651:2790   */\n      swap1\n      pop\n        /* \"#utility.yul\":2378:2797   */\n      swap2\n      swap1\n      pop\n      jump\t// out\n\n    auxdata: 0xa2646970667358221220738ad47fc8dc93277124a94e6922199e6c18c063f33a21cef48bb5e71624d13064736f6c63430008120033\n}\n",
				"bytecode": {
					"linkReferences": {},
					"object": "608060405234801561001057600080fd5b50336000806101000a81548173ffffffffffffffffffffffffffffffffffffffff021916908373ffffffffffffffffffffffffffffffffffffffff1602179055506102d8806100606000396000f3fe6080604052600436106100345760003560e01c80633ccfd60b146100395780638da5cb5b14610050578063ed88c68e1461007b575b600080fd5b34801561004557600080fd5b5061004e610085565b005b34801561005c57600080fd5b5061006561015d565b60405161007291906101c4565b60405180910390f35b610083610181565b005b600047905060008060008054906101000a900473ffffffffffffffffffffffffffffffffffffffff1673ffffffffffffffffffffffffffffffffffffffff16836040516100d190610210565b60006040518083038185875af1925050503d806000811461010e576040519150601f19603f3d011682016040523d82523d6000602084013e610113565b606091505b509150915081610158576040517f08c379a000000000000000000000000000000000000000000000000000000000815260040161014f90610282565b60405180910390fd5b505050565b60008054906101000a900473ffffffffffffffffffffffffffffffffffffffff1681565b565b600073ffffffffffffffffffffffffffffffffffffffff82169050919050565b60006101ae82610183565b9050919050565b6101be816101a3565b82525050565b60006020820190506101d960008301846101b5565b92915050565b600081905092915050565b50565b60006101fa6000836101df565b9150610205826101ea565b600082019050919050565b600061021b826101ed565b9150819050919050565b600082825260208201905092915050565b7f4661696c656420746f2073656e64204574686572000000000000000000000000600082015250565b600061026c601483610225565b915061027782610236565b602082019050919050565b6000602082019050818103600083015261029b8161025f565b905091905056fea2646970667358221220738ad47fc8dc93277124a94e6922199e6c18c063f33a21cef48bb5e71624d13064736f6c63430008120033",
					"opcodes": "PUSH1 0x80 PUSH1 0x40 MSTORE CALLVALUE DUP1 ISZERO PUSH2 0x10 JUMPI PUSH1 0x0 DUP1 REVERT JUMPDEST POP CALLER PUSH1 0x0 DUP1 PUSH2 0x100 EXP DUP2 SLOAD DUP2 PUSH20 0xFFFFFFFFFFFFFFFFFFFFFFFFFFFFFFFFFFFFFFFF MUL NOT AND SWAP1 DUP4 PUSH20 0xFFFFFFFFFFFFFFFFFFFFFFFFFFFFFFFFFFFFFFFF AND MUL OR SWAP1 SSTORE POP PUSH2 0x2D8 DUP1 PUSH2 0x60 PUSH1 0x0 CODECOPY PUSH1 0x0 RETURN INVALID PUSH1 0x80 PUSH1 0x40 MSTORE PUSH1 0x4 CALLDATASIZE LT PUSH2 0x34 JUMPI PUSH1 0x0 CALLDATALOAD PUSH1 0xE0 SHR DUP1 PUSH4 0x3CCFD60B EQ PUSH2 0x39 JUMPI DUP1 PUSH4 0x8DA5CB5B EQ PUSH2 0x50 JUMPI DUP1 PUSH4 0xED88C68E EQ PUSH2 0x7B JUMPI JUMPDEST PUSH1 0x0 DUP1 REVERT JUMPDEST CALLVALUE DUP1 ISZERO PUSH2 0x45 JUMPI PUSH1 0x0 DUP1 REVERT JUMPDEST POP PUSH2 0x4E PUSH2 0x85 JUMP JUMPDEST STOP JUMPDEST CALLVALUE DUP1 ISZERO PUSH2 0x5C JUMPI PUSH1 0x0 DUP1 REVERT JUMPDEST POP PUSH2 0x65 PUSH2 0x15D JUMP JUMPDEST PUSH1 0x40 MLOAD PUSH2 0x72 SWAP2 SWAP1 PUSH2 0x1C4 JUMP JUMPDEST PUSH1 0x40 MLOAD DUP1 SWAP2 SUB SWAP1 RETURN JUMPDEST PUSH2 0x83 PUSH2 0x181 JUMP JUMPDEST STOP JUMPDEST PUSH1 0x0 SELFBALANCE SWAP1 POP PUSH1 0x0 DUP1 PUSH1 0x0 DUP1 SLOAD SWAP1 PUSH2 0x100 EXP SWAP1 DIV PUSH20 0xFFFFFFFFFFFFFFFFFFFFFFFFFFFFFFFFFFFFFFFF AND PUSH20 0xFFFFFFFFFFFFFFFFFFFFFFFFFFFFFFFFFFFFFFFF AND DUP4 PUSH1 0x40 MLOAD PUSH2 0xD1 SWAP1 PUSH2 0x210 JUMP JUMPDEST PUSH1 0x0 PUSH1 0x40 MLOAD DUP1 DUP4 SUB DUP2 DUP6 DUP8 GAS CALL SWAP3 POP POP POP RETURNDATASIZE DUP1 PUSH1 0x0 DUP2 EQ PUSH2 0x10E JUMPI PUSH1 0x40 MLOAD SWAP2 POP PUSH1 0x1F NOT PUSH1 0x3F RETURNDATASIZE ADD AND DUP3 ADD PUSH1 0x40 MSTORE RETURNDATASIZE DUP3 MSTORE RETURNDATASIZE PUSH1 0x0 PUSH1 0x20 DUP5 ADD RETURNDATACOPY PUSH2 0x113 JUMP JUMPDEST PUSH1 0x60 SWAP2 POP JUMPDEST POP SWAP2 POP SWAP2 POP DUP2 PUSH2 0x158 JUMPI PUSH1 0x40 MLOAD PUSH32 0x8C379A000000000000000000000000000000000000000000000000000000000 DUP2 MSTORE PUSH1 0x4 ADD PUSH2 0x14F SWAP1 PUSH2 0x282 JUMP JUMPDEST PUSH1 0x40 MLOAD DUP1 SWAP2 SUB SWAP1 REVERT JUMPDEST POP POP POP JUMP JUMPDEST PUSH1 0x0 DUP1 SLOAD SWAP1 PUSH2 0x100 EXP SWAP1 DIV PUSH20 0xFFFFFFFFFFFFFFFFFFFFFFFFFFFFFFFFFFFFFFFF AND DUP2 JUMP JUMPDEST JUMP JUMPDEST PUSH1 0x0 PUSH20 0xFFFFFFFFFFFFFFFFFFFFFFFFFFFFFFFFFFFFFFFF DUP3 AND SWAP1 POP SWAP2 SWAP1 POP JUMP JUMPDEST PUSH1 0x0 PUSH2 0x1AE DUP3 PUSH2 0x183 JUMP JUMPDEST SWAP1 POP SWAP2 SWAP1 POP JUMP JUMPDEST PUSH2 0x1BE DUP2 PUSH2 0x1A3 JUMP JUMPDEST DUP3 MSTORE POP POP JUMP JUMPDEST PUSH1 0x0 PUSH1 0x20 DUP3 ADD SWAP1 POP PUSH2 0x1D9 PUSH1 0x0 DUP4 ADD DUP5 PUSH2 0x1B5 JUMP JUMPDEST SWAP3 SWAP2 POP POP JUMP JUMPDEST PUSH1 0x0 DUP2 SWAP1 POP SWAP3 SWAP2 POP POP JUMP JUMPDEST POP JUMP JUMPDEST PUSH1 0x0 PUSH2 0x1FA PUSH1 0x0 DUP4 PUSH2 0x1DF JUMP JUMPDEST SWAP2 POP PUSH2 0x205 DUP3 PUSH2 0x1EA JUMP JUMPDEST PUSH1 0x0 DUP3 ADD SWAP1 POP SWAP2 SWAP1 POP JUMP JUMPDEST PUSH1 0x0 PUSH2 0x21B DUP3 PUSH2 0x1ED JUMP JUMPDEST SWAP2 POP DUP2 SWAP1 POP SWAP2 SWAP1 POP JUMP JUMPDEST PUSH1 0x0 DUP3 DUP3 MSTORE PUSH1 0x20 DUP3 ADD SWAP1 POP SWAP3 SWAP2 POP POP JUMP JUMPDEST PUSH32 0x4661696C656420746F2073656E64204574686572000000000000000000000000 PUSH1 0x0 DUP3 ADD MSTORE POP JUMP JUMPDEST PUSH1 0x0 PUSH2 0x26C PUSH1 0x14 DUP4 PUSH2 0x225 JUMP JUMPDEST SWAP2 POP PUSH2 0x277 DUP3 PUSH2 0x236 JUMP JUMPDEST PUSH1 0x20 DUP3 ADD SWAP1 POP SWAP2 SWAP1 POP JUMP JUMPDEST PUSH1 0x0 PUSH1 0x20 DUP3 ADD SWAP1 POP DUP2 DUP2 SUB PUSH1 0x0 DUP4 ADD MSTORE PUSH2 0x29B DUP2 PUSH2 0x25F JUMP JUMPDEST SWAP1 POP SWAP2 SWAP1 POP JUMP INVALID LOG2 PUSH5 0x6970667358 0x22 SLT KECCAK256 PUSH20 0x8AD47FC8DC93277124A94E6922199E6C18C063F3 GASPRICE 0x21 0xCE DELEGATECALL DUP12 0xB5 0xE7 AND 0x24 0xD1 ADDRESS PUSH5 0x736F6C6343 STOP ADDMOD SLT STOP CALLER "
				},
				"gasEstimates": {
					"creation": {
						"codeDepositCost": "145600",
						"executionCost": "24456",
						"totalCost": "170056"
					},
					"external": {
						"donate()": "142",
						"owner()": "2511",
						"withdraw()": "infinite"
					}
				},
				"methodIdentifiers": {
					"donate()": "ed88c68e",
					"owner()": "8da5cb5b",
					"withdraw()": "3ccfd60b"
				}
			},
			"storageLayout": {
				"storage": [
					{
						"astId": 57,
						"contract": ".learneth/Solidity Beginner Course/10.3 Transactions - Sending Ether/sendingEther.sol:Charity",
						"label": "owner",
						"offset": 0,
						"slot": "0",
						"type": "t_address"
					}
				],
				"types": {
					"t_address": {
						"encoding": "inplace",
						"label": "address",
						"numberOfBytes": "20"
					}
				}
			},
			"userdoc": {
				"kind": "user",
				"methods": {},
				"version": 1
			}
		}
	}
}